:020000040800F2
:100000004809002081010008493D00080135000829
:1000100000000000000000000000000000000000E0
:10002000000000000000000000000000EB4100089C
:100030000000000000000000E94100083D42000807
:100040009301000893010008930100089301000840
:10005000930100084D0500085D05000867050008CC
:100060000000000093010008E1040008930100086B
:10007000930100089301000800000000F542000809
:100080000000000005430008000000000000000020
:10009000930100080000000093010008930100088C
:1000A000930100089301000893010008BD52000865
:1000B0009301000893010008000000000000000008
:1000C00000F002F800F04CF812A030C808382418EC
:1000D0002D18AC4201D100F043F80FCCA246AB463C
:1000E0000CA730CF2D1B083F3F197C427F1E544484
:1000F0002D090426F441641EAC4201D300F030F80F
:100100000126334200D0FB1A3343984754465D46DC
:10011000DFE700005C7300007C730000103A02D33C
:1001200078C878C1FAD8520701D330C830C101D598
:1001300004680C6070470000704700000023002432
:1001400000250026103A01D378C1FBD8520700D30E
:1001500030C100D50B6070471FB51FBD10B510BD75
:1001600000F08BF91146FFF7F7FF05F023F900F0D7
:10017000A3F903B4FFF7F2FF03BC00F0A9F90000F4
:100180000748804707480047FEE7FEE7FEE7FEE72F
:10019000FEE7FEE704480549054A064B70470000A4
:1001A000F1420008C100000848030020480900206F
:1001B0004805002048050020FEB5044610460D46BF
:1001C000184373D0A6468C460020A41A01469D41D0
:1001D00067D36646002701243D46B61A9D4102D3E7
:1001E00013463A462124654676462F04360C3E4394
:1001F0002D0CB61A9D4104D3150C1B042B4312047D
:100200001034654676462F06360A3E432D0AB61A46
:100210009D4104D3150E1B022B4312020834654680
:1002200076462F0736093E432D09B61A9D4104D361
:10023000150F1B012B431201241D65467646AF079F
:10024000B6083E43AD08B61A9D4104D3950F9B00F6
:100250002B439200A41C65467646EF0776083E4382
:100260006D08B61A9D411AD392185B41641C16E0C2
:100270000018764665464941B71A9D4101910090A4
:1002800009D36046B11A98418E4684460098019978
:100290000025401C6941DD0752082A435B08641EA3
:1002A000E6D57246634603B0F0BDFFE7204628431B
:1002B00007D00020C0430146C046C04622462B4618
:1002C000F1E700200146F7E701E004C0091F042917
:1002D000FBD28B0701D50280801CC90700D00270B9
:1002E000704700290BD0C30702D00270401C491E82
:1002F000022904D3830702D50280801C891EE3E70C
:100300000022EEE70022DFE7002203098B422CD314
:10031000030A8B4211D300239C464EE003460B4355
:100320003CD4002243088B4231D303098B421CD3B7
:10033000030A8B4201D394463FE0C3098B4201D3A9
:10034000CB01C01A524183098B4201D38B01C01AE1
:10035000524143098B4201D34B01C01A5241030958
:100360008B4201D30B01C01A5241C3088B4201D307
:10037000CB00C01A524183088B4201D38B00C01AB4
:10038000524143088B4201D34B00C01A5241411ADB
:1003900000D201465241104670475DE0CA0F00D0BE
:1003A0004942031000D3404253409C4600220309B7
:1003B0008B422DD3030A8B4212D38901FC2212BA3D
:1003C000030A8B420CD3890192118B4208D3890115
:1003D00092118B4204D389013AD0921100E089092D
:1003E000C3098B4201D3CB01C01A524183098B420E
:1003F00001D38B01C01A524143098B4201D34B01F7
:10040000C01A524103098B4201D30B01C01A524159
:10041000C3088B4201D3CB00C01A524183088B42E0
:1004200001D38B00C01A5241D9D243088B4201D369
:100430004B00C01A5241411A00D2014652411046A7
:1004400063465B1001D34042002B00D54942704700
:1004500063465B1000D3404201B50549002802DC29
:10046000491C084000E00846C046C04602BD00BF27
:10047000FFFFFF7F704770477047754600F024F814
:10048000AE46050069465346C008C000854618B010
:1004900020B5FFF77FFE60BCB64600260027C0C52A
:1004A000C0C5C0C5C0C5C0C5C0C5C0C5C0C5403D2C
:1004B000490849008D46704710B50446C046C046FD
:1004C0002046FFF756FE10BD004870473000002060
:1004D00001491820ABBEFEE726000200704700006D
:1004E00080B5034800F0D4F8024800F0D1F880BD90
:1004F0009C0100205401002084B0039002910192DD
:10050000009303994A6C1C20024001209040096C22
:10051000486000980399096848600398806810282B
:1005200009D1FFE701980399096888600298039947
:100530000968C86008E00298039909688860019812
:1005400003990968C860FFE704B0704780B50120CF
:1005500000F0BEFA022000F0BBFA80BD80B5042096
:1005600000F0B6FA80BD80B582B001200190800213
:1005700000F0AEFA0198C00200F0AAFA02B080BD05
:1005800081B0EFF3108072B60090FFE7FEE783B012
:10059000019069460020087001982521405C0228DE
:1005A0000DD0FFE701990420C863FFE701992422D9
:1005B00000208854FFE702A90120087020E001987C
:1005C000016808680E22904308600198026811686B
:1005D000012081431160019A536C1C210B4001469C
:1005E0009940126C5160019925228854FFE70199C6
:1005F000242200208854FFE7009802A90870FFE732
:1006000002A8007803B0704780B582B001906946B7
:100610000020087001982521405C022807D0FFE7E0
:1006200001990420C86369460120087026E00198FA
:10063000016808680E2290430860019802681168FA
:10064000012081431160019A536C1C210B4001462B
:100650009940126C5160019925228854FFE7019955
:10066000242200208854FFE70198806B002804D0E2
:10067000FFE70198816B8847FFE7FFE7684600784E
:1006800002B080BD81B000900098C06B01B070478F
:1006900080B584B003900398006C006802900398C2
:1006A00000680068019002980399496C1C2211406F
:1006B000C8404007002826D5FFE701A8007840077A
:1006C000002820D5FFE7039800680068800600280E
:1006D00007D4FFE703980168086804229043086084
:1006E000FFE703994A6C1C20024004209040096CEB
:1006F00048600398006B002804D0FFE70398016B63
:100700008847FFE770E002980399496C1C2211406A
:10071000C8408007002830D5FFE701A8007880078F
:1007200000282AD5FFE703980068006880060028A3
:100730000BD4FFE70398016808680A229043086019
:100740000399252201208854FFE703994A6C1C2055
:10075000024002209040096C4860FFE70399242280
:1007600000208854FFE70398C06A002804D0FFE700
:100770000398C16A8847FFE735E002980399496CFE
:100780001C221140C840000700282AD5FFE701A815
:1007900000780007002824D5FFE70398016808685F
:1007A0000E2290430860039A536C1C2003400120E2
:1007B00001469940126C51600399C8630399252240
:1007C0008854FFE70399242200208854FFE7039808
:1007D000406B002804D0FFE70398416B8847FFE790
:1007E00000E0FFE7FFE7FFE704B080BD80B584B01D
:1007F00002900298002804D1FFE703A901200870A5
:1008000055E00298009000682B4940181421FFF72A
:100810007BFD009980004864029928480864029989
:1008200025220220885402980068006801900198EF
:1008300023490840019002988168C2681143026907
:1008400011434269114382691143C2691143006A2D
:1008500001430198084301900198029909680860D2
:100860000298806801218903884213D0FFE702982B
:10087000406C1C2318400F228240124908689043A4
:10088000086002984268406C184082400868104333
:100890000860FFE702990020C863029A252301211E
:1008A000D15402992422885403A90870FFE703A8B1
:1008B000007804B080BDC046F8FFFDBF00000240D4
:1008C0000F80FFFFA800024080B586B0049003911E
:1008D00002920193694600200870FFE704982421E2
:1008E000405C012804D1FFE705A9022008704CE014
:1008F0000499242201208854FFE7FFE7049825216A
:10090000405C012833D1FFE7049925220220885456
:1009100004990020C8630498016808680122904384
:10092000086004980399029A019BFFF7E5FD04987B
:10093000006B002807D0FFE70498016808680E22C2
:10094000104308600CE00498016808680422904392
:1009500008600498016808680A2210430860FFE7ED
:1009600004980168086801221043086009E0FFE765
:100970000499242200208854FFE769460220087069
:10098000FFE7009805A90870FFE705A8007806B002
:1009900080BD000080B584B0039000F05DFA029045
:1009A000039801900198401C002806D0FFE70948F1
:1009B0000178019840180190FFE7FFE700F04CFA3A
:1009C0000299401A0199884201D2FFE7F6E704B084
:1009D00080BDC0462400002080B58EB001460DA821
:1009E00001800088042813D0FFE70DA800880228A2
:1009F0000ED0FFE70DA8008801218902884207D0A8
:100A0000FFE70DA800880121C902884207D1FFE74E
:100A10002C4802680021516201F05AFDFFE70DA841
:100A20000088012824D1FFE7EB48012100F0E4F918
:100A300000281DD1FFE70520000701210291C9020E
:100A40000022019200F0F1F903F080F90199029877
:100A50000C910B910A9109910891089011200004C2
:100A6000099002200A90DC4808A900F047F8FFE747
:100A70000DA80088012823D1FFE7D748012100F005
:100A8000BBF901281CD1FFE70F4910480860052079
:100A9000000701220092D10200F0C7F9009800215E
:100AA0000791069105910491039103902120000480
:100AB000049002200590C84803A900F01FF8FFE742
:100AC0000EB080BD3802002020000020B95D000873
:100AD00080B582B001A908800748006809880842EB
:100AE00008D0FFE701A80188034A11600088FFF7DA
:100AF00073FFFFE702B080BD140401408BB00A9081
:100B000009910020089007900690FFE70998006877
:100B10000899C840002800D157E109980068089A50
:100B200001219140084007900798002800D148E132
:100B30000998406803210840012807D0FFE7099879
:100B400040680321084002282CD1FFE70A988068FA
:100B5000069008984000032181400698884306903B
:100B60000998C1680898400081400698084306909B
:100B700006980A9988600A984068069008980121AA
:100B800081400698884306900998406810210840E3
:100B900001090898814006980843069006980A992A
:100BA0004860FFE70998406803210840032816D0F1
:100BB000FFE70A98C068069008984000032181402A
:100BC00006988843069009988168089840008140FB
:100BD00006980843069006980A99C860FFE70998A6
:100BE000406803210840022820D1FFE70A980899AD
:100BF000C90889004018006A069008984007C00E8E
:100C00000F21814006988843069009980169089849
:100C10004007C00E814006980843069006980A993E
:100C2000089AD208920089180862FFE70A980068BB
:100C3000069008984100032002468A400699914395
:100C4000069109994968014008984000814006983A
:100C50000843069006980A990860099880798007E9
:100C6000002800D1ACE05A4908680122104308600E
:100C700008980321884357494058069008988007F0
:100C8000000F0F2181400698884306900A9805219D
:100C90000907884203D1FFE7002005902DE00A985C
:100CA0004D49884203D1FFE70120049022E00A98D1
:100CB0004A49884203D1FFE70220039017E00A98CF
:100CC0004749884203D1FFE7032002900CE00A99CC
:100CD000444A0520062300939142019001D00098D8
:100CE000019001980290FFE702980390FFE70398B4
:100CF0000490FFE704980590FFE70599089880079E
:100D0000000F814006980843069006980899032230
:100D10009143304A885034480068069007990698F5
:100D20008843069009988079C006002805D5FFE71A
:100D30000799069808430690FFE706982A49086035
:100D40002A480068069007990698884306900998F3
:100D500080798006002805D5FFE7079906980843A3
:100D60000690FFE706982149086021480068069030
:100D7000079906988843069009988079800700288B
:100D800005D5FFE70799069808430690FFE7069800
:100D90001749086017480068069007990698884325
:100DA000069009988079C007002805D0FFE70799C9
:100DB000069808430690FFE706980E490860FFE78B
:100DC000FFE70898401C0890A0E60BB07047C046AB
:100DD0003410024008000140000400500008005098
:100DE000000C0050001C0050080401400C0401409D
:100DF000040401400004014084B0009101460098C1
:100E0000039102A90880039800690988084204D068
:100E1000FFE701A90120087003E001A90020087084
:100E2000FFE701A8007804B0704783B0029001A8E2
:100E30000180684602700078002805D0FFE701A80D
:100E400000880299886104E001A8008802998862FC
:100E5000FFE703B070470000014800687047C046D4
:100E60004003002010B583B001900091019841210A
:100E7000405C202839D1FFE7FFE701984021405C22
:100E8000012804D1FFE702A90220087031E001998E
:100E9000402201208854FFE7FFE7019941222420E6
:100EA00088540198016808680123984308600198F4
:100EB000016808681C03A0430860009C0198016851
:100EC00008682043086001980168086818430860B2
:100ED000019920208854FFE701994022002088547E
:100EE000FFE702A90020087003E002A902200870B1
:100EF000FFE702A8007803B010BD84B00290019112
:100F000002984121405C20283FD1FFE7FFE702988B
:100F10004021405C012804D1FFE703A902200870AA
:100F200037E00299402201208854FFE7FFE7029949
:100F300041222420885402980168086801239843BC
:100F40000860029800680068009000980F2109026C
:100F5000884300900198010200980843009000988F
:100F600002990968086002980168086818430860D7
:100F7000029920208854FFE70299402200208854DB
:100F8000FFE703A90020087003E003A9022008700E
:100F9000FFE703A8007804B07047000080B582B076
:100FA00000900098002804D1FFE701A901200870F3
:100FB0007EE000984121405C002808D1FFE70099BD
:100FC000402200208854009800F0A6F9FFE700991D
:100FD0004122242088540098016808680122904327
:100FE0000860009948680F231B0698430968086148
:100FF000009801688868D203904388600098C068B0
:10100000012808D1FFE7009988680122D203104324
:101010000968886007E000998868212292021043DD
:1010200009688860FFE70098C068022808D1FFE7D8
:101030000098016848680122D2021043486007E026
:101040000098016848680122D20290434860FFE797
:10105000009801684868184A104348600098016881
:10106000C8680122D3039843C860009908694B6996
:1010700018438B691B0218430968C8600099C86946
:101080000B6A1843096808600098016808681043F3
:101090000860009900204864009A41232021D1541F
:1010A0000099086300994222885401A90870FFE75B
:1010B00001A8007802B080BD00800002B0B58AB0FF
:1010C000044610980F980E9D089407AC218006A93D
:1010D0000A8005A90B8004A9088008984121405C7A
:1010E000202800D00EE10E98002805D0FFE704A8C4
:1010F0000088002807D1FFE7089A012041025164C7
:1011000009A9087002E1FFE708984021405C012826
:1011100004D1FFE709A902200870F7E008994022EE
:1011200001208854FFE7FFE7FFF796FE0390089839
:10113000039900910122D103192302F087FB0028B3
:1011400004D0FFE709A901200870DFE008994122D7
:101150002120885408994222402088540899002070
:1011600048640E99089A51620499089A5185089921
:101170004863089807A9098806AA128805AB1B8846
:10118000109C039D0195009402F0D8FA00280AD023
:10119000FFE7FFE70899402200208854FFE709A9EC
:1011A00001200870B2E00898408D000A00280FD096
:1011B000FFE70899FF200885089807A909882822D1
:1011C000825C0023009301231B0602F015FB0FE055
:1011D0000898408D08990885089807A90988282249
:1011E000825C0023009301235B0602F005FBFFE70E
:1011F000FFE708981099039A02F0D9FB002804D061
:10120000FFE709A90120087080E00899486A007882
:10121000096888620899486A401C48620899488DA4
:10122000401E48850899088D401E08850898408D05
:1012300000283AD0FFE70898008D002835D1FFE755
:101240000898109B039900918021002202F0FEFA79
:10125000002804D0FFE709A90120087056E008988B
:10126000408D000A00280FD0FFE70899FF2008856D
:10127000089807A909882822825C0023009301238B
:101280001B0602F0B9FA0FE00898408D089908850E
:10129000089807A909882822825C0023009301236B
:1012A0005B0602F0A9FAFFE7FFE7FFE70898408D29
:1012B00000289ED1FFE708981099039A02F027FBB7
:1012C000002804D0FFE709A9012008701EE0089853
:1012D00001682020C86108990A6851680D4B1940BF
:1012E000516008994122885408994222002088546C
:1012F000FFE70899402200208854FFE709A9002051
:10130000087003E009A902200870FFE709A8007827
:101310000AB0B0BD00E800FE80B588B0079000209C
:101320000690059004900390029007980068134976
:10133000884220D1FFE7FFE71148026802210A43F3
:1013400002600068084001900198FFE70320010255
:10135000029112210391002104910590042006902E
:10136000084802A9FFF7CAFBE949086801225205AB
:1013700010430860FFE708B080BDC046005400403D
:101380002C100240000400502D48027802490868E1
:10139000801808607047C0464003002080B582B0C6
:1013A00001A9002008700B4908684022104308601A
:1013B000032000F011F8002804D0FFE701A9012064
:1013C000087002E000F040F8FFE701A8007802B0E2
:1013D00080BDC0460020024080B584B0029017480E
:1013E00000680190164801787D20C000FEF78CFF50
:1013F00001460198FEF788FF00F08CFF002804D01A
:10140000FFE703A90120087014E00298032809D817
:10141000FFE702990022D04300F02FF80298094913
:10142000086003E003A90120087003E003A900207D
:101430000870FFE703A8007804B080BD1C000020FE
:1014400024000020280000200549086801221043DC
:101450000860AF4908681207104308607047C0462B
:101460003410024080B582B0014601A8017000210D
:10147000405603F029FF02B080BD80B584B003461A
:1014800003A803700291019200214056029903F0D3
:1014900031FF04B080BD000080B586B0049001A982
:1014A00000200870049800788006002800D4D8E056
:1014B000049800788006002801D5FFE7FFE79448EC
:1014C0000068C000002809D4FFE7914A1168012094
:1014D00003071943116001A90870FFE78D480068F0
:1014E000C00500281DD4FFE78A49086801221202BE
:1014F00010430860FFF7B0FC0390FFE785480068E1
:10150000C00500280CD4FFE7FFF7A6FC0399401A9A
:10151000652804D3FFE705A903200870F3E0EDE791
:10152000FFE77D48006803210A05104002900298F9
:10153000049949681140884214D0FFE70498406834
:1015400003210904084088420BD1FFE77248006874
:101550008003002804D5FFE705A901200870D2E028
:10156000FFE7FFE76D480068032109040840029087
:101570000298002841D0FFE70298049949680322A5
:1015800012041140884238D0FFE7049800788006A2
:10159000002832D5FFE7614908680322120490430E
:1015A000029008680122D204104308600868904342
:1015B00008600298086002A84078C00700281BD085
:1015C000FFE7FFF749FC0390FFE75448006801215B
:1015D00049020840400A00280DD1FFE7FFF73CFC14
:1015E0000399401A4F49884204D3FFE705A9032015
:1015F000087088E0E9E7FFE7FFE7049800788006D5
:10160000002821D5FFE7FFE7FFE7049840680321A2
:101610000904084088420BD1FFE7FE49086803220D
:1016200013059843049A52681A4080180860FFE72F
:10163000FFE7049842680320000402403749086825
:1016400010430860FFE7FFE701A80078012807D1F1
:10165000FFE72F4908680122120790430860FFE75F
:10166000FFE704980078C007002809D0FFE72C495D
:10167000086803229043049A926810430860FFE7C9
:10168000049800788007002809D5FFE724490868F6
:101690000C229043049AD26810430860FFE7049834
:1016A0000078400700280AD5FFE71D490868032293
:1016B00092029043049A126910430860FFE704986D
:1016C0000078000700280AD5FFE7154908680322BB
:1016D00012039043049A526910430860FFE704988C
:1016E0000078000600280AD5FFE70D4908680322A4
:1016F00092049043049A926910430860FFE705A999
:1017000000200870FFE705A8007806B080BDC0463D
:10171000381002400070004000100240501002409B
:101720004C1002408913000080B586B004900391EC
:101730000498002804D1FFE705A90120087062E1A0
:101740000398B349096801221140884221D9FFE773
:10175000AF49086801229043039A10430860FFF7DD
:101760007BFB0290FFE7AA4800680121084003992B
:1017700088420DD0FFE7FFF76FFB0299401AA64998
:10178000884204D3FFE705A9032008703BE1EAE79C
:10179000FFE7049800788007002809D5FFE7F4499F
:1017A0000868F0229043049A926810430860FFE7AB
:1017B00004980078C007002800D1BCE00498406875
:1017C00002280ED1FFE7EC480068012149040840D7
:1017D000400C002804D1FFE705A90120087012E1A0
:1017E00034E00498406803280ED1FFE7E24800681F
:1017F000012149060840400E002804D1FFE705A951
:1018000001200870FFE020E00498406801280DD115
:10181000FFE7D9480068042108408008002804D167
:10182000FFE705A901200870EDE00DE0D24800684F
:10183000012149020840400A002804D1FFE705A918
:1018400001200870DFE0FFE7FFE7FFE7C84908680D
:1018500003229043049A526810430860FFF7FCFA91
:10186000029004984068022816D1FFE7FFE7C048BD
:1018700000680C21084008280DD0FFE7FFF7ECFABC
:101880000299401A6449884204D3FFE705A903205E
:101890000870B8E0EBE74DE004984068032816D1E3
:1018A000FFE7FFE7B24800680C2108400C280DD084
:1018B000FFE7FFF7D1FA0299401A5749884204D34B
:1018C000FFE705A9032008709DE0EBE731E00498ED
:1018D0004068012816D1FFE7FFE7A54800680C2102
:1018E000084004280DD0FFE7FFF7B6FA0299401A26
:1018F0004949884204D3FFE705A90320087082E024
:10190000EBE715E0FFE79A4800680007800F002822
:101910000DD0FFE7FFF7A0FA0299401A3E4988422E
:1019200004D3FFE705A9032008706CE0EBE7FFE7AD
:10193000FFE7FFE7FFE703983549096801221140F7
:10194000884221D2FFE73249086801229043039A76
:1019500010430860FFF780FA0290FFE72C48006808
:1019600001210840039988420DD0FFE7FFF774FA80
:101970000299401A2849884204D3FFE705A90320A9
:10198000087040E0EAE7FFE7049800784007002885
:101990000AD5FFE776490868072212029043049AA5
:1019A000D26810430860FFE7049800780007002819
:1019B0000BD5FFE76E4908680722D2029043049ACC
:1019C0001269D20010430860FFE700F04FF8684941
:1019D0000968C9B20A091149895CC84013490860FD
:1019E0000F480068FFF7F8FC014601A80170007875
:1019F000002804D0FFE7019805A9087003E005A9B5
:101A000000200870FFE705A8007806B080BDC0463A
:101A10000020024000100240891300008461000889
:101A200028000020014800687047C0461C000020C4
:101A300080B5FFF7F7FF4E490968072212021140EF
:101A40000A0A0949895CC84080BDC04680B5FFF7D5
:101A5000E9FF474909680722D2021140CA0A024930
:101A6000895CC84080BDC0469461000880B588B0DC
:101A70003F480068079007980C21084001900C2807
:101A800066D80198810001A0405887464F1B000886
:101A9000511B0008511B0008511B0008C11A000807
:101AA000511B0008511B0008511B0008DB1A0008DD
:101AB000511B0008511B0008511B0008E11A0008C7
:101AC0002D480068C006002803D5FFE72C48029087
:101AD00002E02A480290FFE746E02A48029043E0ED
:101AE00007980F2189040840810C2248405C069029
:101AF0000798032189050840800D401C05901C486B
:101B00000068C003002808D5FFE706991D48484330
:101B10000599FEF7F9FB049016E017480068C00627
:101B2000002808D5FFE70699154848430599FEF7B0
:101B3000EBFB049007E00699104848430599FEF72F
:101B4000E3FB0490FFE7FFE7049802900CE0FFE757
:101B50000D48006880B2400B03900398411C01209F
:101B60008840C0030290FFE7029808B080BDC046DD
:101B70000C10024064740008001002400024F400BD
:101B800000093D0000127A000410024010B58AB02E
:101B900008900898002804D1FFE709A901200870DF
:101BA000A8E3F84801680C22114004910068012163
:101BB00009040840039008980078C007002800D165
:101BC0008DE0049808280AD0FFE704980C2819D162
:101BD000FFE7039801210904884213D1FFE7EA488F
:101BE0000068012149040840400C002809D0FFE7A3
:101BF00008984068002804D1FFE709A9012008706F
:101C000078E36BE0FFE70898406801210904884207
:101C100007D1FFE7DC49086801221204104308607D
:101C200021E0089840680521090488420BD1FFE7AC
:101C3000D549086801229304184308600868120413
:101C4000104308600EE0D04908680122130498434D
:101C5000086008681840029002980868920490434F
:101C60000860FFE7FFE7FFE70898406800281AD000
:101C7000FFE7FFF7F1F80790FFE7C348006801218D
:101C800049040840400C00280CD1FFE7FFF7E4F8B6
:101C90000799401A652804D3FFE709A903200870B3
:101CA00028E3EAE719E0FFF7D7F80790FFE7B6481F
:101CB0000068012149040840400C00280CD0FFE7CF
:101CC000FFF7CAF80799401A652804D3FFE709A966
:101CD000032008700EE3EAE7FFE7FFE7FFE7089855
:101CE00000788007002800D499E00898C068069022
:101CF0000498042808D0FFE704980C2841D1FFE796
:101D0000039800283DD1FFE79F4800680421084060
:101D10008008002808D0FFE70698002804D1FFE7D4
:101D200009A901200870E5E2984908681F221202FB
:101D30009043089A12691202104308609249086899
:101D400009229043069A10430860FFE7FFF78EFED2
:101D50008C490968C9B20A098D49895CC8408D4916
:101D600008608D480068FFF737FB014605A8017041
:101D70000078002804D0FFE7059809A90870B9E2A7
:101D80004CE0069800282AD0FFE77F49086809221E
:101D90009043069A10430860FFF75EF80790FFE74C
:101DA0007948006804210840800800280CD1FFE72A
:101DB000FFF752F80799401A032804D3FFE709A94F
:101DC0000320087096E2EBE7704908681F221202B0
:101DD0009043089A12691202104308601DE06A4994
:101DE0000868012290430860FFF736F80790FFE784
:101DF0006548006804210840800800280CD0FFE7EF
:101E0000FFF72AF80799401A032804D3FFE709A926
:101E1000032008706EE2EBE7FFE7FFE7FFE70898B3
:101E20000078C006002800D4A1E00498002845D11D
:101E3000FFE755480068012149020840400A002890
:101E400009D0FFE708988069002804D1FFE709A9B5
:101E5000012008704EE24D49086807225203904362
:101E6000089A126A104308600868FF22120690431D
:101E7000089AD2691206801808600898006A400B18
:101E8000411C01208840C0033E490968C9B20A09C3
:101E90003F49895CC8403F4908603F480068FFF7F8
:101EA0009BFA014605A801700078002804D0FFE7DE
:101EB000059809A908701DE2FFE757E008988069B6
:101EC000002832D0FFE7304908680122120210438F
:101ED0000860FEF7C1FF0790FFE72B48006801216B
:101EE00049020840400A00280CD1FFE7FEF7B4FF82
:101EF0000799401A032804D3FFE709A903200870B3
:101F0000F8E1EAE721490868072252039043089A5A
:101F1000126A104308600868FF2212069043089A6C
:101F2000D2691206801808601FE0F549086801228E
:101F3000120290430860FEF78FFF0790FFE7F0481A
:101F40000068012149020840400A00280CD0FFE740
:101F5000FEF782FF0799401A032804D3FFE709A977
:101F600003200870C6E1EAE7FFE7FFE7FFE708980C
:101F70000078000700284ED5FFE708984069002840
:101F80002AD00BE00C100240001002400410024066
:101F9000846100081C00002028000020D94908683E
:101FA000012210430860FEF757FF0790FFE7D5486E
:101FB000006802210840400800280CD1FFE7FEF726
:101FC0004BFF0799401A032804D3FFE709A9032010
:101FD00008708FE1EBE71DE0CA49086801229043D1
:101FE0000860FEF739FF0790FFE7C6480068022146
:101FF0000840400800280CD0FFE7FEF72DFF0799A6
:10200000401A032804D3FFE709A90320087071E1EF
:10201000EBE7FFE7FFE7089800784007002800D4C7
:10202000BBE001A900200870B7480068C000002884
:1020300009D4FFE7B44A116801200307194311606E
:1020400001A90870FFE7B1480068C00500281DD449
:10205000FFE7AE4908680122120210430860FEF74C
:10206000FBFE0790FFE7A9480068C00500280CD4D4
:10207000FFE7FEF7F1FE0799401A652804D3FFE752
:1020800009A90320087035E1EDE7FFE7FFE70898AD
:10209000806801210902884207D1FFE79949086851
:1020A00001221202104308602EE008988068002880
:1020B0000BD1FFE793490868012213029843086097
:1020C00008689202904308601DE008988068052126
:1020D000090288420BD1FFE78A490868012293026E
:1020E0001843086008681202104308600AE0854936
:1020F000086801221302984308600868920290431E
:102100000860FFE7FFE7FFE7FFE70898806800281F
:102110001BD0FFE7FEF7A0FE0790FFE779480068B5
:10212000012149020840400A00280DD1FFE7FEF7CF
:1021300093FE0799401A7649884204D3FFE709A91C
:1021400003200870D6E0E9E71AE0FEF785FE079065
:10215000FFE76C480068012149020840400A002856
:102160000DD0FFE7FEF778FE0799401A68498842CC
:1021700004D3FFE709A903200870BBE0E9E7FFE704
:1021800001A80078012807D1FFE7D049086801229B
:10219000120790430860FFE7FFE70898406A0028AD
:1021A00000D1A3E004980C2872D0FFE70898406A99
:1021B00002284CD1FFE752490868012212069043D9
:1021C0000860FEF749FE0790FFE74D4800680121CF
:1021D00049060840400E00280CD0FFE7FEF73CFE01
:1021E0000799401A032804D3FFE709A903200870C0
:1021F00080E0EAE741490868FD2212049043089B09
:102200009A6ADC6A22431B6B1A43104308603C49FC
:1022100008680122120610430860FEF71DFE0790B1
:10222000FFE737480068012149060840400E0028B2
:102230000CD1FFE7FEF710FE0799401A032804D3DC
:10224000FFE709A90320087054E0EAE71FE02C49E2
:1022500008680122120690430860FEF7FDFD079012
:10226000FFE727480068012149060840400E002882
:102270000CD0FFE7FEF7F0FD0799401A032804D3BE
:10228000FFE709A90320087034E0EAE7FFE72CE044
:102290000898406A012804D1FFE709A901200870C5
:1022A00028E01648006803900398012109040840BB
:1022B0000899896A884212D1FFE703980F2189049F
:1022C00008400899C96A884209D1FFE703980321A9
:1022D000890508400899096B884204D0FFE709A9DD
:1022E0000120087006E0FFE7FFE7FFE709A90020EB
:1022F0000870FFE709A800780AB010BD0C10024072
:10230000001002405010024038100240007000409F
:102310008913000080B582B00190019801F066FF3A
:1023200002B080BD85B003900291FFE70398382189
:10233000405C012804D1FFE704A9022008704DE0A9
:102340000399382201208854FFE7FFE703993922D7
:102350000220885403980068406801900398006840
:10236000806800900198702188430190029801686C
:1023700001980843019001980399096848600398FF
:1023800000680121890788420CD0FFE703980068A4
:102390007449884206D0FFE7039800687249884272
:1023A0000ED1FFE700988021884300900298416891
:1023B0000098084300900098039909688860FFE737
:1023C0000399392201208854FFE70399382200201D
:1023D0008854FFE704A900200870FFE704A80078EC
:1023E00005B0704780B582B000900098002804D1F5
:1023F000FFE701A90120087030E000983921405C16
:10240000002808D1FFE7009938220020885400985E
:1024100000F028F8FFE7009939220220885400993B
:1024200001C901F077FF00993E2201208854FFE79F
:1024300000993A220120885400993B22885400993F
:102440003C22885400993D228854FFE700993922A4
:102450000120885401A900200870FFE701A8007836
:1024600002B080BD80B584B003900398006801215C
:10247000890788420FD1FFE71449086801221043F9
:1024800008600F20029000221146FEF7F6FF029826
:10249000FEF7E8FF15E0039800680B4988420FD16A
:1024A000FFE70A49086810221043086011200190D4
:1024B00000221146FEF7E1FF0198FEF7D3FFFFE788
:1024C000FFE704B080BDC046001000403810024055
:1024D00083B0019001983921405C012804D0FFE7C6
:1024E00002A90120087038E001993922022088549D
:1024F00001980268D06801210843D0600198006803
:10250000890788420CD0FFE7019800681549884286
:1025100006D0FFE7019800681349884212D1FFE70F
:1025200001980068806807210840009000980628FC
:1025300007D0FFE70198016808680122104308608E
:10254000FFE706E00198016808680122104308606F
:10255000FFE702A900200870FFE702A8007803B097
:102560007047C046000801400014014081B000904F
:1025700000980168C86801229043C860FFE700988E
:102580000068006A0949084207D1FFE7009801681E
:102590000868012290430860FFE7FFE700993922AD
:1025A00001208854002001B07047C046111100007E
:1025B00080B586B00490039102A900200870FFE75F
:1025C00004983821405C012804D1FFE705A90220C6
:1025D0000870AEE00499382201208854FFE7FFE735
:1025E0000499392202208854049800688068019078
:1025F00001987721884301900198FF2109028843BF
:102600000190019804990968886003980068009017
:10261000002875D0FFE70098102871D0FFE70098D8
:1026200020286DD0FFE70098302869D0FFE7009898
:10263000402858D0FFE7009850283AD0FFE700988C
:10264000602843D0FFE7009870280DD0FFE700987E
:1026500001210903884206D0FFE7009801214903C0
:10266000884216D053E056E004980068039B9968AE
:102670005A68DB6801F0AAFE04980068806801903F
:1026800001987721084301900198049909688860AE
:1026900041E004980068039B99685A68DB6801F080
:1026A00095FE0498016888680122920310438860AF
:1026B00031E004980068039A5168D26801F0B6FED0
:1026C00004980068502101F09CFE24E00498006802
:1026D000039A5168D26801F0D1FE04980068602125
:1026E00001F08FFE17E004980068039A5168D268E1
:1026F00001F09CFE04980068402101F082FE0AE08F
:10270000049800680399096801F07BFE03E002A9C0
:1027100001200870FFE70499392201208854FFE75F
:102720000499382200208854FFE7029805A9087010
:10273000FFE705A8007806B080BD81B0009001B029
:10274000704780B584B0039003980068C068029019
:10275000039800680069019001A8007880070028AC
:1027600025D5FFE702A80078800700281ED5FFE7DF
:10277000039801680220C04308610399012008768C
:102780000398006880698007002804D0FFE7039859
:10279000FFF7D3FF06E0039800F0BAF8039800F0C3
:1027A000BBF8FFE7039900200876FFE7FFE701A8E1
:1027B00000784007002826D5FFE702A800784007E8
:1027C00000281FD5FFE7039801680420C043086173
:1027D0000399022008760398006880698005800FBD
:1027E000002804D0FFE70398FFF7A7FF06E003984F
:1027F00000F08EF8039800F08FF8FFE703990020AF
:102800000876FFE7FFE701A800780007002825D534
:10281000FFE702A80078000700281ED5FFE703980D
:1028200001680820C04308610399042008760398D2
:102830000068C0698007002804D0FFE70398FFF70D
:102840007CFF06E0039800F063F8039800F064F85A
:10285000FFE7039900200876FFE7FFE701A800786B
:10286000C006002826D5FFE702A80078C006002889
:102870001FD5FFE7039801681020C0430861039942
:102880000820087603980068C0698005800F00283A
:1028900004D0FFE70398FFF750FF06E0039800F02D
:1028A00037F8039800F038F8FFE70399002008761E
:1028B000FFE7FFE701A80078C007002810D0FFE776
:1028C00002A80078C007002809D0FFE70398016834
:1028D0000120C0430861039800F022F8FFE7FFE7FA
:1028E00001A800784006002810D5FFE702A800786C
:1028F0004006002809D5FFE7039801684020C0433F
:102900000861039800F08AF8FFE7FFE704B080BD94
:1029100081B0009001B0704781B0009001B0704765
:1029200080B584B00390039800680121890788422C
:1029300032D1FFE73148FFF719FE31480421FEF795
:102940005BFA002804D1FFE72E4901200870FFE759
:102950002B480221FEF750FA002804D1FFE72A494C
:1029600001200870FFE7012081022548FEF744FAA4
:10297000002804D1FFE7254901200870FFE7012066
:10298000C1021F48FEF738FA002804D1FFE72049AA
:1029900001200870FFE7FFE7039800681D4988429F
:1029A0002AD1FFE71C48FFF7E1FD05200007019051
:1029B000012202921146FEF738FA0198029A042188
:1029C000FEF733FA0198029A0221FEF72EFA0198D7
:1029D000029A0821FEF729FA0198029A2021FEF7AF
:1029E00024FA0198029A1021FEF71FFA0198029A20
:1029F0004021FEF71AFAFFE704B080BD380200203C
:102A0000000400509000002091000020920000205F
:102A100093000020001000407802002081B0009058
:102A200001B0704780B58AB00590049103A8028078
:102A3000059880214058202861D1FFE7049800289C
:102A400005D0FFE703A80088002804D1FFE706A906
:102A50000120087057E00598806801210903884229
:102A600010D1FFE70598006900280BD1FFE704A803
:102A70000078C007002804D0FFE706A901200870ED
:102A800041E0FFE7059901200866059900204866A6
:102A90000598049903AA128802F0F0FA014602A8E8
:102AA00001700078002826D1FFE70598006E012804
:102AB0001CD1FFE70598016810200862FFE7EFF3DB
:102AC000108007900798019001200990099880F3E1
:102AD0001088059801680868102210430860019862
:102AE0000890089880F31088FFE703E002A901200E
:102AF0000870FFE7FFE7029806A9087003E006A93F
:102B000002200870FFE706A800780AB080BD000028
:102B100080B586B0059004A80180059800680B492F
:102B2000884210D1FFE70A48019080210291FDF709
:102B3000E7FB0848039000F013F80199029A039804
:102B4000FFF770FFFFE706B080BDC04600380140C8
:102B500094000020B802002081B0009001B07047BE
:102B600080B58CB004900498C06F039004988021C5
:102B700040580290049800688068000600283CD500
:102B8000FFE70398212838D1FFE7FFE7EFF3108034
:102B900007900798019001200B900B9880F3108804
:102BA00004980168886880229043886001980A90A0
:102BB0000A9880F31088FFE70498006F002818D067
:102BC000FFE70498006FFDF7E2FC002810D0FFE754
:102BD0000498006FFDF756FD202808D1FFE70499FF
:102BE00084221020885005A9032008704CE0FFE7DC
:102BF000FFE7049801F0BBFFFFE7049800688068D6
:102C0000400600283CD5FFE70298222838D1FFE78C
:102C1000FFE7EFF3108006900698009001200990DE
:102C2000099880F3108804980168886840229043CE
:102C3000886000980890089880F31088FFE704984F
:102C4000406F002818D0FFE70498406FFDF79FFC05
:102C5000002810D0FFE70498406FFDF713FD2028EF
:102C600008D1FFE7049984221020885005A9032089
:102C7000087009E0FFE7FFE7049801F0FBFEFFE7BB
:102C800005A900200870FFE705A800780CB080BDFA
:102C900081B0009001B0704780B5A8B00F900F9838
:102CA0000068C0690E900F98006800680D900F983A
:102CB000006880680C900E98F34908400B900B98C0
:102CC000002817D1FFE70EA800788006002810D54D
:102CD000FFE70DA80078800600280AD5FFE70F98C7
:102CE000806E002804D0FFE70F98816E8847FFE7C9
:102CF00073E2FFE70B98002800D1FBE00CA80078F6
:102D0000C007002805D1FFE70D98E049084200D12F
:102D1000F0E00EA80078C007002810D0FFE70DA84B
:102D20004078C00700280AD0FFE70F980068012309
:102D300003620F998422885818438850FFE70EA831
:102D400000788007002811D5FFE70CA80078C0079D
:102D500000280BD0FFE70F980168022008620F9946
:102D600084228858042318438850FFE70EA800786F
:102D70004007002811D5FFE70CA80078C0070028FD
:102D80000BD0FFE70F980168042008620F99842296
:102D90008858022318438850FFE70EA800780007E0
:102DA000002816D5FFE70DA800788006002806D475
:102DB000FFE70CA80078C00700280AD0FFE70F98AB
:102DC0000068082303620F998422885818438850AA
:102DD000FFE70EA840780007002812D5FFE70DA8EE
:102DE000C078400700280CD5FFE70F980168012044
:102DF000C00208620F998422885820231843885003
:102E0000FFE70F9884214058002872D0FFE70EA8F2
:102E100000788006002810D5FFE70DA8007880060E
:102E200000280AD5FFE70F98806E002804D0FFE73E
:102E30000F98816E8847FFE7FFE70F98842140587D
:102E40000A900F980068806840210840402806D00A
:102E5000FFE70AA800782821084241D0FFE70F9831
:102E600001F008FE0F98006880684006002832D5FF
:102E7000FFE7FFE7EFF31080179017980990012004
:102E80002790279880F310880F980168886840225F
:102E90009043886009982690269880F31088FFE771
:102EA0000F98406F002811D0FFE70F98416FCC4872
:102EB00088630F98406FFDF7A7FB002805D0FFE758
:102EC0000F98406F816B8847FFE703E00F98FFF78B
:102ED000DFFEFFE703E00F98FFF7DAFEFFE707E00A
:102EE0000F98FFF7D5FE0F99842200208850FFE746
:102EF000FFE772E10F98006E012800D032E10EA8C2
:102F00000078C006002800D42CE10DA80078C00687
:102F1000002800D426E10F980168102008620F985D
:102F2000006880684006002800D4B1E00F98406F28
:102F30000068416808A801800088002800D187E067
:102F400008A800880F995822895A884200DB7FE040
:102F500008980F995A2288520F98406F00680068AD
:102F60008006002867D4FFE7FFE7EFF31080169094
:102F70001698079001222592259880F310880F98C3
:102F8000016808681202904308600798249024980A
:102F900080F31088FFE7FFE7EFF310801590159896
:102FA000069001222392239880F310880F980168DD
:102FB00088689043886006982290229880F3108851
:102FC000FFE7FFE7EFF310801490149805900120BD
:102FD0002190219880F310880F980168886840221A
:102FE0009043886005982090209880F31088FFE730
:102FF0000F998022202088500F9900200866FFE753
:10300000EFF3108013901398049001201F901F98E5
:1030100080F310880F9801680868102290430860B8
:1030200004981E901E9880F31088FFE70F98406F59
:10303000FDF7ADFAFFE70F99022048660F98582177
:10304000415A5A22825A891A89B2FFF761FD1AE061
:1030500008A800880F995822895A884212D1FFE7A0
:103060000F98406F006800688006002809D5FFE7C8
:103070000F99022048660F985821415AFFF748FDE2
:10308000FFE7FFE7FFE7A8E00F08000020010004CA
:103090000F9A5820105A5A21525A801A03AA1080A7
:1030A0000F98405A00285CD0FFE703A8008800284A
:1030B00057D0FFE7FFE7EFF31080129012980290CD
:1030C00001201D901D9880F310880F9801680868F2
:1030D000092252019043086002981C901C9880F3CA
:1030E0001088FFE7FFE7EFF310801190119801902F
:1030F00001221B921B9880F310880F980168886842
:103100009043886001981A901A9880F31088FFE71E
:103110000F998022202088500F99002008660F996F
:103120008866FFE7EFF31080109010980090012060
:103130001990199880F310880F9801680868102278
:103140009043086000981890189880F31088FFE763
:103150000F99022048660F9803A90988FFF7D8FC49
:10316000FFE73AE00EA88078C00600280FD5FFE7F9
:103170000CA880784006002809D5FFE70F98016861
:103180000120000508620F98FFF7E6FC25E00EA875
:1031900000780006002810D5FFE70DA8007800068B
:1031A00000280AD5FFE70F98C06E002804D0FFE77B
:1031B0000F98C16E8847FFE70FE00EA80078400621
:1031C00000280AD5FFE70DA800784006002804D59E
:1031D000FFE70F9801F0A6FCFFE728B080BDC046CE
:1031E0008947000880B582B000900098002804D17B
:1031F000FFE701A90120087048E0009880690028D5
:1032000001D0FFE700E0FFE70098C06F002808D179
:10321000FFE70099782200208854009800F03AF8DF
:10322000FFE700992420C867009801680868012218
:10323000904308600098406A002804D0FFE7009897
:1032400001F046F9FFE7009801F0B0FC012804D135
:10325000FFE701A90120087018E00098016848689C
:103260000922D202904348600098016888682A22A7
:103270009043886000980168086801221043086044
:10328000009801F0D3F901A90870FFE701A80078C0
:1032900002B080BD80B58CB00B9000200A900990E0
:1032A0000890079006900B9800683749884269D1CA
:1032B000FFE7364908680122920310430860FFE7E0
:1032C0003348026802210A43026000680840059002
:1032D0000598FFE7C0200690022007900120089083
:1032E000032002900990002003900A90294806A923
:1032F000FDF704FC029A039927480490274B0360CA
:1033000042608160C160802202614161816120224E
:10331000C2610162FDF76AFA002803D0FFE7FDF7FA
:103320002FF9FFE7FFE70B981B4941670B9888626D
:10333000FFE71B4801901B490160032141601021F8
:1033400081600021C1608022026141618161C161AF
:103350000162FDF74BFA002803D0FFE7FDF710F9F3
:10336000FFE7FFE70B980E4901670B988862FFE7BC
:103370001B20009000221146FEF77FF80098FEF710
:1033800071F8FFE70CB080BD0038014034100240F6
:103390002C10024000040050540100203000024074
:1033A0009C0100201C00024081B0009001B07047D9
:1033B00081B0009001B0704780B588B00390029151
:1033C00001A802800398C06F202800D081E00298F5
:1033D000002805D0FFE701A80088002804D1FFE7F6
:1033E00004A90120087078E003988068012109038E
:1033F000884210D1FFE70398006900280BD1FFE74E
:1034000002A80078C007002804D0FFE704A9012023
:10341000087062E0FFE702980399C8640198039975
:10342000502288520198039952228852039984228B
:103430000020885003992120C8670398006F002856
:1034400028D0FFE70398016F2648C8620398016FF0
:10345000254808630398016F244848630398016F67
:1034600000208863039A106FD16C1268283201AB78
:103470001B88FDF729FA00280BD0FFE70399842267
:103480001020885003992020C86704A901200870E3
:1034900023E0FFE70398016840200862FFE7EFF3AD
:1034A000108005900598009001200790079880F300
:1034B000108803980168886880221043886000980B
:1034C0000690069880F31088FFE704A90020087092
:1034D00003E004A902200870FFE704A8007808B000
:1034E00080BDC046D34900085F4A0008A7470008CE
:1034F00081B0009001B0704781B0009001B070477A
:10350000FFE7FEE781B00090009800688069022123
:1035100008404008002805D0FFE700980168002017
:103520008862FFE7009800688069C007002807D11B
:10353000FFE7009801688869012210438861FFE76E
:1035400001B0704780B58AB009900891079206A92A
:103550000020087009990968896905910490079805
:10356000039005A80078C006002800D484E00998DC
:1035700001681020C861FFE7099800688069202170
:103580000840410900200029009006D1FFE706A865
:103590000078414248410090FFE70098C0070028AA
:1035A00058D0FFE70898401C002852D0FFE7FDF7ED
:1035B00053FC0399401A0899884204D8FFE70898F9
:1035C000002845D1FFE70998006840680121890378
:1035D0000840029009984221405C01A908700998AE
:1035E0000068806980B2C00B002816D0FFE70298FF
:1035F00001218903884210D0FFE701A80078202824
:103600000BD0FFE709980168486801229203104334
:103610004860FDF721FC0390FFE7FFE70998006889
:103620008069202108404009002810D1FFE7FDF7FC
:1036300013FC0399401A1A2808D3FFE704982021A5
:103640000843049006A90120087000E0E6E7FFE7C0
:10365000FFE791E706A80078002805D1FFE7099861
:1036600001682020C861FFE7049804210843049002
:1036700006A901200870FFE7099800688069059095
:1036800005A84078C00700280BD0FFE70499012067
:103690000143049109990A680102D16106A90870E1
:1036A000FFE705A84078400700280CD5FFE70498FD
:1036B0000821084304900998026801208102D16121
:1036C00006A90870FFE705A84078800700280CD5F8
:1036D000FFE704980221084304900998026801203A
:1036E0004102D16106A90870FFE706A8007800280A
:1036F0001DD0FFE70998FFF705FF099801684868A2
:103700000D4A10404860049A0999486C1043486477
:103710000999412220208854099942220020885486
:10372000FFE70999402200208854FFE7FFE706A839
:1037300000780AB080BDC04600E800FE10B588B031
:103740000291014602980B9C0A9C069105A90880EB
:1037500004A8028003AA1380069809881278254BD2
:10376000009301231B0600F047F806980A990B9A6C
:1037700000F01DF9002804D0FFE707A90120087018
:1037800034E003A80088012806D1FFE704A80078E8
:1037900006990968886216E004A8407806990968C5
:1037A000886206980A990B9A00F001F9002804D063
:1037B000FFE707A90120087018E004A8007806991F
:1037C00009688862FFE706980A9B0B99009180219F
:1037D000002200F03BF8002804D0FFE707A90120F1
:1037E000087003E007A900200870FFE707A8007829
:1037F00008B010BD0020008010B585B0079C049073
:1038000003A8018002A90A70019300880D4A1040A4
:1038100009780904401801990843079908430121D0
:10382000C907884300900498006840680799490DCB
:10383000884305490840009908430499096848608D
:1038400005B010BDFF030000009C00FC10B586B061
:10385000089C0490039102A802700193FFE704986A
:103860000068806903990840401A4142484102A912
:103870000978884243D1FFE704980199089AFFF735
:1038800061FE002804D0FFE705A9012008703AE096
:103890000198401C002831D0FFE7FDF7DDFA0899B8
:1038A000401A0199884204D8FFE70198002824D1E2
:1038B000FFE704980068806903990840401A414274
:1038C000484102A90978884216D1FFE7049A516C51
:1038D00020200143516404994122885404994222D2
:1038E00000208854FFE70499402200208854FFE715
:1038F00005A90120087006E0FFE7FFE7AFE705A98B
:1039000000200870FFE705A8007806B010BD80B55C
:1039100084B0029001910092FFE7029800688069EC
:10392000202108404009002839D1FFE70298019979
:10393000009AFFF707FE002804D0FFE703A9012043
:10394000087030E0FDF788FA0099401A0199884222
:1039500004D8FFE70198002820D1FFE7029800680B
:103960008069202108404009002816D1FFE7029A0B
:10397000516C2020014351640299412288540299DC
:10398000422200208854FFE70299402200208854F8
:10399000FFE703A90120087005E0FFE7BDE703A9E1
:1039A00000200870FFE703A8007804B080BD80B550
:1039B00084B0029001910092FFE70298006880694C
:1039C00002210840400800283FD1FFE702980199F2
:1039D000009AFFF7B7FD002804D0FFE703A90120F4
:1039E000087036E00198401C00282DD0FFE7FDF755
:1039F00033FA0099401A0199884204D8FFE70198E8
:103A0000002820D1FFE70298006880690221084061
:103A10004008002816D1FFE7029A516C202001438C
:103A2000516402994122885402994222002088540C
:103A3000FFE70299402200208854FFE703A90120F4
:103A4000087006E0FFE7FFE7B7E703A9002008706A
:103A5000FFE703A8007804B080BD000080B582B005
:103A6000FFE70A48026801210A4302600068084033
:103A700001900198FFE70A20009000221146FDF70F
:103A8000FCFC0098FDF7EEFC02B080BD3010024057
:103A9000B0B592B00020119010900F900E900D9044
:103AA000FFE74648026804210A43026000680840B4
:103AB0000C900C98FFE7FFE74048026880210A431A
:103AC0000260006808400B900B98FFE7FFE73B4857
:103AD000026801210A430260006808400A900A98BF
:103AE000FFE7FFE73548026802210A4302600068E9
:103AF000084009900998FFE705200590000703900A
:103B00007F2101242246FDF790F90398E502002267
:103B100007922946FDF789F9039807990D940E94A9
:103B20000F91032110910DA90491FCF7E7FF039871
:103B30000499079A7E230D930E940F921092FCF72E
:103B4000DDFF04990D942120000400900E900220C6
:103B500002900F901A480190FCF7D0FF009A01984C
:103B60000499184B0D930E920F94FCF7C7FF029B1C
:103B700003980499079A0D950E940F931092FCF7F1
:103B8000BDFF0598079A1146FDF777FC0598FDF7EC
:103B900069FC079A062006901146FDF76EFC069810
:103BA000FDF760FC079A072008901146FDF765FCB9
:103BB0000898FDF757FC12B0B0BDC0462C1002406B
:103BC00000040050060C000080B582B01648019039
:103BD0001649016016494160002181600122C260DE
:103BE000016141618161C1610162FDF7D7F900287E
:103BF00003D0FFE7FCF7C4FCFFE70B480021FDF70B
:103C000031F9002803D0FFE7FCF7BAFCFFE70648CC
:103C10000021FDF772F9002803D0FFE7FCF7B0FCA4
:103C2000FFE702B080BDC046E40100200054004020
:103C30002F11600080B588B0002101910791069195
:103C400005910491039102911748012292070260A5
:103C50002B4A426081601D22C26001614161FEF712
:103C6000C1FB002803D0FFE7FCF78AFCFFE7012037
:103C7000000304900C4804A9FEF79AFC002803D026
:103C8000FFE7FCF77DFCFFE7002002900390064869
:103C900002A9FEF747FB002803D0FFE7FCF770FC02
:103CA000FFE708B080BDC0463802002080B582B072
:103CB0000021019100911048104A0260104A4260B0
:103CC00081603122C2604161FEF78CFB002803D085
:103CD000FFE7FCF755FCFFE7002000900190064845
:103CE0006946FEF71FFB002803D0FFE7FCF748FCFE
:103CF000FFE702B080BDC0467802002000100040FF
:103D0000FF7C000080B582B00D4801900D49016034
:103D1000E1214902416000218160C16001610C2202
:103D200042618161C16101624162FFF75BFA002873
:103D300003D0FFE7FCF724FCFFE702B080BDC046DC
:103D4000B802002000380140FFE7FEE780B584B0EC
:103D500003A900200870FFE703A80078072824DCE7
:103D6000FFE70398B030C0B200F018FA00200190CD
:103D700000F014FA102000F011FA019802A908705E
:103D8000FFE702A800787F2809DCFFE7002000F0A9
:103D900017FAFFE70298401C02A90870F1E7FFE755
:103DA0000398401C03A90870D6E704B080BD00004A
:103DB00080B582B0C820FCF7EDFD01A90020087095
:103DC0000870FFE701A8007816280CDCFFE701A8BF
:103DD00001780648405C00F0E1F9FFE70198401CDB
:103DE00001A90870EEE702B080BDC04600000020C7
:103DF00080B584B003AA0192107002A801700298E5
:103E0000B030C0B200F0CAF9019800780009103053
:103E100000F0C4F9019800780F21084000F0BEF9C5
:103E200004B080BD10B588B00C46014607A80170EB
:103E300006A90C7005AC227004AA137003AB0193A1
:103E4000002202921A7000780978FFF7D1FF0199D9
:103E500002980870FFE703A800780F2823DCFFE72B
:103E600004A8007800280DD0FFE705A8007881019C
:103E70002948401803A90978405CFF21484000F018
:103E80009FF90AE005A8007881012348401803A99A
:103E90000978405C00F094F9FFE7FFE70398401CC5
:103EA00003A90870D7E707A800780699491CC9B28A
:103EB000FFF79EFF03A900200870FFE703A8007822
:103EC0000F2827DCFFE704A8007800280FD0FFE7C1
:103ED00005A8007881011048401803A90978401806
:103EE0002021405CFF21484000F06AF90CE005A861
:103EF000007881010848401803A90978401820215A
:103F0000405C00F05DF9FFE7FFE70398401C03A960
:103F10000870D3E708B010BDA4690008B0B588B038
:103F20000C4605460C9907A8057006AD2C7005AC2B
:103F3000227004AA137003AA117002AA0021117042
:103F400001AB19700599203911700078802808DBC1
:103F5000FFE707A9002008700698801C06A90870D2
:103F6000FFE704A80078102868D1FFE707A80078C9
:103F700006A90978FFF73CFF01A900200870FFE7B8
:103F800001A80078072823DCFFE703A800780028B1
:103F90000DD0FFE702A80078000101A909784118B7
:103FA0004348405CFF21484000F00AF90AE002A8BB
:103FB0000078000101A9097841183D48405C00F0F3
:103FC000FFF8FFE7FFE70198401C01A90870D7E759
:103FD00007A800780699491CC9B2FFF709FF01A993
:103FE00000200870FFE701A80078072825DCFFE71C
:103FF00003A8007800280ED0FFE702A8007800018F
:1040000001A9097840182A494018007AFF21484040
:1040100000F0D6F80BE002A80078000101A90978A9
:10402000401823494018007A00F0CAF8FFE7FFE77C
:104030000198401C01A90870D5E734E007A8007872
:1040400006A90978FFF7D4FE01A900200870FFE750
:1040500001A80078052825DCFFE703A800780028E0
:104060000ED0FFE702A80078062141430F48401810
:1040700001A90978405CFF21484000F0A1F80BE05D
:1040800002A80078062141430848401801A9097890
:10409000405C00F095F8FFE7FFE70198401C01A99C
:1040A0000870D5E7FFE708B0B0BDC0469C610008C6
:1040B000C463000870B58CB00C4605461198109981
:1040C0000BAE35700AAD2C70099208AA137007AABE
:1040D000117006A9087003A90020087005A90870CE
:1040E000FFE705A8007808A90978884254DAFFE7B5
:1040F0000998019008990598C0434018C1B20A2058
:10410000029002F027F801460198FCF7FDF80299A9
:10411000FCF7FAF804A8017003A80078002823D15E
:10412000FFE705A8007808A90978491E88421BDA2C
:10413000FFE704A80078002811D1FFE70B9807A932
:104140000B785A080599514340180AA9097806AA1C
:1041500012780092C0B22022FFF7E0FE17E003A918
:1041600001200870FFE7FFE70B9807A90B785A08B2
:104170000599514340180AA90978049A303206ACCF
:1041800024780094C0B2D2B2FFF7C8FEFFE70598CA
:10419000401C05A90870A4E70CB070BD80B584B0C0
:1041A000014603A8017001231902029101930090B6
:1041B0000C4878210022FCF781FF04B080BDC04686
:1041C00080B584B0014603A8017001231902029151
:1041D00001930090034878214022FCF76FFF04B060
:1041E00080BDC046E40100207047704780B584B0B0
:1041F00002900298401E000E002803D0FFE7012025
:10420000039011E00298401E0949086000200190C7
:10421000C043032101F06EF8019806490860064A80
:10422000072111600390FFE7039804B080BDC046EA
:1042300014E000E018E000E010E000E080B5FDF7D9
:10424000A3F880BDB0B59CB00FA801903421FCF755
:1042500059F80198002102910E910D910C910B914A
:104260000A91099108910791069105910491039192
:104270001E4C23680322D1028B430121CD025B191E
:1042800023600F910B041093022418941993920445
:104290001A9289051B91FDF779FC002803D0FFE7EE
:1042A000FCF76EF9FFE70F200A9003200B90002027
:1042B0000C900D900E900AA80121FDF735FA002808
:1042C00003D0FFE7FCF75CF9FFE70920039000202B
:1042D0000590089003A8FDF7DFF8002803D0FFE75A
:1042E000FCF74EF9FFE71CB0B0BDC04600700040BF
:1042F0007047000080B50248FEF723FA80BDC04633
:104300003802002080B50248FEF71BFA80BDC04687
:104310007802002083B0029001910298006800901A
:1043200002980121890788420AD0FFE702982549AF
:10433000884205D0FFE70298234988420AD1FFE767
:1043400000987021884300900198416800980843C4
:104350000090FFE702980121890788420AD0FFE711
:1043600002981849884205D0FFE70298164988420A
:104370000BD1FFE7009803210902884300900198C0
:10438000C168009808430090FFE7009880218843A7
:104390000199096908430090019880680299C862F0
:1043A0000198006802998862029908680422104303
:1043B000086002990120486100980299086003B0E2
:1043C0007047C046000801400014014085B00490C9
:1043D0000391029201930498806800900098FF2155
:1043E00009028843009003990298019A120210432F
:1043F000014300980843009000980499886005B034
:10440000704783B0029001910298806800900098F4
:1044100070218843009001980099084307210843C0
:10442000009000980299886003B0704785B00490AE
:10443000039102920498006A00900499086A01228C
:10444000904308620498806901900198F0218843A4
:1044500001900298010101980843019000980A21F7
:1044600088430090039900980843009001980499AC
:10447000886100980499086205B0704785B004907F
:10448000039102920498006A00900499086A10222D
:104490009043086204988069019001980F210903F4
:1044A0008843019002980103019808430190009805
:1044B000A0218843009003980101009808430090D0
:1044C00001980499886100980499086205B07047C2
:1044D00081B0009000982421405C000700280CD592
:1044E000FFE70098006840680121C90388430099EC
:1044F0004A6B104309684860FFE700982421405C3C
:10450000C00700280CD0FFE7009800684068012130
:104510004904884300998A6A104309684860FFE7A4
:1045200000982421405C800700280CD5FFE7009804
:10453000006840680121090488430099CA6A104351
:1045400009684860FFE700982421405C4007002884
:104550000CD5FFE700980068406801218904884372
:1045600000990A6B104309684860FFE7009824210E
:10457000405CC00600280CD5FFE700980068806802
:1045800001210903884300998A6B104309688860F8
:10459000FFE700982421405C800600280CD5FFE747
:1045A0000098006880680121490388430099CA6B1C
:1045B000104309688860FFE700982421405C4006AA
:1045C00000281DD5FFE70098006840680121090513
:1045D0008843009A136C1843126850600098006C6E
:1045E00088420CD1FFE70098006840680321490524
:1045F000884300994A6C104309684860FFE7FFE769
:1046000000982421405C000600280CD5FFE70098A4
:10461000006840680121C904884300998A6C1043EE
:1046200009684860FFE701B07047000080B590B0AE
:1046300005900599842200208850FCF70DFC049019
:104640000598006800680007002831D5FFE7059845
:10465000049B4C49009101214905002200F0AAFD6C
:10466000002824D0FFE7FFE7EFF3108009900998B6
:10467000039001200F900F9880F31088059801682F
:10468000086880229043086003980E900E9880F38B
:104690001088FFE705992020C867FFE70599782271
:1046A00000208854FFE706A90320087065E0FFE7B3
:1046B0000598006800684007002849D5FFE705987D
:1046C000049B3049009101218905002200F072FD10
:1046D00000283CD0FFE7FFE7EFF310800890089830
:1046E000029001200D900D9880F3108805980168C4
:1046F0000868092252019043086002980C900C98B7
:1047000080F31088FFE7FFE7EFF31080079007982A
:10471000019001220B920B9880F310880598016894
:1047200088689043886001980A900A9880F31088FE
:10473000FFE70599802220208850FFE7059978221D
:1047400000208854FFE706A90320087015E0FFE762
:1047500005992020C8670599802288500599002076
:10476000086605994866FFE7059978220020885475
:10477000FFE706A900200870FFE706A8007810B040
:1047800080BDC046FFFFFF0180B582B00190019857
:10479000806A009000995A22002088520098FEF703
:1047A00077FA02B080BD80B584B003900398806A28
:1047B00002900298C06F01900298802140580090AA
:1047C000029800688068000600280CD5FFE7019871
:1047D000212808D1FFE7029952220020885202982E
:1047E00000F0C5F9FFE702980068806840060028DD
:1047F0000CD5FFE70098222808D1FFE702995A223A
:1048000000208852029800F035F9FFE702998422CF
:1048100088581023184388500298FEF739FA04B0DC
:1048200080BD80B594B007900798806A069007987D
:1048300000680068800600286AD4FFE706995A22BB
:1048400000208852FFE7EFF310800B900B98059043
:1048500001221392139880F3108806980168086863
:1048600012029043086005981290129880F3108805
:10487000FFE7FFE7EFF310800A900A980490012207
:104880001192119880F31088069801688868904307
:10489000886004981090109880F31088FFE7FFE775
:1048A000EFF3108009900998039001200F900F9862
:1048B00080F31088069801688868402290438860D9
:1048C00003980E900E9880F31088FFE706998022D7
:1048D000202088500698006E012818D1FFE7FFE7D6
:1048E000EFF3108008900898029001200D900D9829
:1048F00080F31088069801680868102290430860C9
:1049000002980C900C9880F31088FFE7FFE7FFE710
:104910000699002048660698006E01281FD1FFE71F
:1049200006995A220020885207980068416801A819
:104930000180008806995822895A884205DAFFE7E3
:10494000019806995A228852FFE706985821415A41
:104950005A22825A891A89B2FEF7DAF803E00698D9
:10496000FEF722FDFFE714B080BD80B584B0039050
:104970000398806A02900299012048660298006EAE
:10498000012820D1FFE702995822885A40085A236B
:10499000C85203980068416801A801800088029904
:1049A000895A884205DCFFE7019802995A22885209
:1049B000FFE702985821415A5A22825A891A89B22D
:1049C000FEF7A6F803E00298FEF7F2FCFFE704B05A
:1049D00080BD80B58AB003900398806A02900398E6
:1049E000006800688006002833D4FFE7029952224D
:1049F00000208852FFE7EFF31080059005980190A2
:104A000001200990099880F310880298016888684D
:104A100080229043886001980890089880F310885D
:104A2000FFE7FFE7EFF31080049004980090012067
:104A30000790079880F31088029801680868402260
:104A40001043086000980690069880F31088FFE7EE
:104A500003E00298FEF74CFDFFE70AB080BD80B589
:104A600082B001900198806A00900098FEF744FDA2
:104A700002B080BD8DB00390FFE7EFF31080069089
:104A80000698029001200C900C9880F310880398EF
:104A900001680868092252019043086002980B904F
:104AA0000B9880F31088FFE7FFE7EFF31080059085
:104AB0000598019001220A920A9880F310880398C1
:104AC000016888689043886001980990099880F38C
:104AD0001088FFE70398006E012818D1FFE7FFE771
:104AE000EFF310800490049800900120089008983B
:104AF00080F31088039801680868102290430860CA
:104B000000980790079880F31088FFE7FFE7039964
:104B10008022202088500399002008660399886627
:104B20000DB0704780B586B00290FFE7EFF31080BC
:104B300003900398019001200590059880F3108858
:104B40000298016808684022904308600198049028
:104B5000049880F31088FFE702992020C867029923
:104B60000020C8660298FEF7C3FC06B080BD85B081
:104B70000190FFE7EFF3108002900298009001206F
:104B80000490049880F31088019801680868C02296
:104B90009043086000980390039880F31088FFE723
:104BA00001992020C86705B07047000010B58EB08D
:104BB0000D9008A9002008700D980068FD498842F2
:104BC00001D1FFE700E0FFE70D9988680A6910430B
:104BD0004A691043C96908430C900D980068006841
:104BE000F94908400C9908430D99096808600D9827
:104BF000006840680321090388430D99CA6810437F
:104C0000096848600D9880690C900D980068E94922
:104C1000884206D0FFE70D98016A0C9808430C9073
:104C2000FFE70D98006880680B21090288430C9902
:104C300008430D9909688860FFE70D980068E3490B
:104C400088422AD1FFE7E248006803210840069025
:104C500003281DD80698810001A040588746C04609
:104C6000714C0008814C0008794C0008894C000800
:104C70000AA9012008700FE00AA9022008700BE0C1
:104C80000AA90420087007E00AA90820087003E0B8
:104C90000AA910200870FFE77DE00D980068F2492E
:104CA00088423CD1FFE7F14800680C21084005909C
:104CB0000C282FD80598810001A040588746C0468F
:104CC000F54C0008154D0008154D0008154D00085D
:104CD000054D0008154D0008154D0008154D00083C
:104CE000FD4C0008154D0008154D0008154D000835
:104CF0000D4D00080AA9002008700FE00AA9022043
:104D000008700BE00AA90420087007E00AA908202F
:104D1000087003E00AA910200870FFE73AE00D9838
:104D20000068D049884230D1FFE7D04800680321AD
:104D3000890208400490002812D0FFE7049801215E
:104D40008902884214D0FFE704980121C9028842F1
:104D50000AD0FFE704980321890288420CD00FE0B3
:104D60000AA9002008700FE00AA9022008700BE0D1
:104D70000AA90420087007E00AA90820087003E0C7
:104D80000AA910200870FFE703E00AA910200870A4
:104D9000FFE7FFE7FFE7FFE70D980068B1498842AA
:104DA00076D1FFE70AA800780390082831D8039845
:104DB000810001A040588746DD4D0008134E0008D1
:104DC000E54D0008134E0008034E0008134E00087E
:104DD000134E0008134E00080B4E0008FCF728FE87
:104DE00007901CE0A2480068102108400009002834
:104DF00003D0FFE7A048079002E09E480790FFE736
:104E00000DE0FCF733FE079009E00120C003079096
:104E100005E00020079008A901200870FFE7079827
:104E2000002834D0FFE707980D994A6803215143C1
:104E3000884207D3FFE707980D994968090388421C
:104E400004D9FFE708A9012008701FE00798010EA8
:104E500000020D9A52685408002300195941FBF7CB
:104E6000ABF909900998000A03280AD3FFE70998CB
:104E7000000D002805D1FFE709980D990968C86061
:104E800003E008A901200870FFE7FFE7FFE7E0E083
:104E90000D98C0690121C90388426FD1FFE70AA8B4
:104EA00000780290082836D80298810001A0405866
:104EB0008746C046D94E0008E14E0008E94E00087A
:104EC000174F0008074F0008174F0008174F00083A
:104ED000174F00080F4F0008FCF7AAFD079020E0CD
:104EE000FCF7B4FD07901CE0614800681021084001
:104EF0000009002803D0FFE75F48079002E05D4803
:104F00000790FFE70DE0FCF7B1FD079009E00120F5
:104F1000C003079005E00020079008A90120087051
:104F2000FFE70798002828D0FFE7079840000D9971
:104F300049684A088018FBF7E7F909900998102892
:104F400016D3FFE709A84088002811D1FFE7099987
:104F50000F2081430BA8018009990E2211404A08B5
:104F60000B991143018000880D990968C86003E01E
:104F700008A901200870FFE7FFE769E00AA80078A8
:104F8000019008283DD80198810001A0405887462B
:104F9000B94F0008C14F0008D54F00080350000862
:104FA000F34F0008035000080350000803500008A6
:104FB000FB4F000800480040FCF73AFD079026E050
:104FC000FCF744FD079022E0F369FFEF0038014051
:104FD0004C100240264800681021084000090028B3
:104FE00003D0FFE72448079002E022480790FFE73C
:104FF0000DE0FCF73BFD079009E00120C00307909E
:1050000005E00020079008A901200870FFE7079835
:1050100000281CD0FFE707980D9949684A088018B6
:10502000FBF772F90990099810280BD3FFE709A83C
:105030004088002806D1FFE709A800880D99096873
:10504000C86003E008A901200870FFE7FFE7FFE759
:10505000FFE70D99002088660D99C86608A80078BA
:105060000EB010BD00480040004400404C1002400B
:10507000001002400024F40000093D0080B590B00B
:105080000590049103A80280049805994865039847
:105090000599582288520599842200208850059944
:1050A0008022222088500598406F002829D0FFE7F1
:1050B0000598416F3C48C8620598416F3B480863BA
:1050C0000598416F3A4848630598416F002088630E
:1050D000059A506F11682431526D03AB1B88FBF7A2
:1050E000F3FB00280CD0FFE705998422102088509C
:1050F000059980222020885006A9012008704EE0E2
:10510000FFE705980069002818D0FFE7FFE7EFF3F5
:10511000108009900998029001220F920F9880F355
:105120001088059801680868120210430860029808
:105130000E900E9880F31088FFE7FFE7FFE7EFF38C
:10514000108008900898019001220D920D9880F32C
:1051500010880598016888681043886001980C9051
:105160000C9880F31088FFE7FFE7EFF310800790BB
:105170000798009001200B900B9880F310880598F9
:105180000168886840221043886000980A900A9855
:1051900080F31088FFE706A900200870FFE706A843
:1051A000007810B080BDC046234800086B49000855
:1051B000A747000810B586B0089C0490039102A888
:1051C00002700193FFE704980068C06903990840E2
:1051D000401A4142484102A90978884266D1FFE756
:1051E0000898401C002860D0FFE7FBF735FE0199C6
:1051F000401A0899884204D8FFE70898002804D18B
:10520000FFE705A90320087054E0049800680068CF
:105210004007002848D5FFE70398802844D0FFE7DF
:105220000398402840D0FFE704980068C06908212F
:105230000840C008012816D1FFE70498016808203B
:10524000009008620498FFF715FC009804998422E6
:105250008850FFE70499782200208854FFE705A9C9
:105260000120087026E004980068C0690121C90285
:105270000840C00A012816D1FFE704980168012000
:10528000C00208620498FFF7F5FB049984222020ED
:105290008850FFE70499782200208854FFE705A989
:1052A0000320087006E0FFE7FFE78CE705A9002070
:1052B0000870FFE705A8007806B010BD80B56D48FE
:1052C000FDF7EAFC80BDC04681B00146684601702A
:1052D00000214056002809D4FFE7684601781F20C6
:1052E00001400120884002490860FFE701B0704793
:1052F00000E100E070B582B0024601A802700091A2
:1053000000214056002816D4FFE7002401A90857C1
:105310000322D3431840174A805809578C07E50EDB
:10532000FF24AC40A043009CA401E4B2AC40204365
:10533000194088501AE001A908780F242040083845
:105340000322D34318400A4A8058002549578D0745
:10535000EE0EFF25B540A843009DAD01EDB2B5406E
:1053600028432140083919408850FFE702B070BD3A
:105370001CED00E000E400E084B00390029101A97C
:10538000002008700090FFE70098029988420CDA2C
:10539000FFE703980099415C0198484001A9087013
:1053A000FFE70098401C0090EEE701A8007804B0E9
:1053B0007047000080B582B000200190FBF7EEFF3F
:1053C000FEF740FFFEF764FBFEF748FBFEF7FCFB31
:1053D000FEF730FCFEF796FCFEF768FC25480268F5
:1053E000116810231943116023498022FDF71AFB2D
:1053F0002248FDF76DF82248FDF76AF8FEF7D8FC61
:10540000FEF7A4FCFFE71F480078012804D1FFE75E
:10541000F949FA480860FFE7F4480078012804D108
:10542000FFE7F54918480860FFE7F14800780128D0
:1054300004D1FFE7F04915480860FFE7EA48007823
:10544000012804D1FFE7EC4911480860FFE7EA486A
:10545000006800280DD0FFE7E34900200870E54907
:105460000870E3490870E1490870E3480068804724
:10547000FFE7C8E7B80200209400002038020020AF
:10548000780200209100002011580008B15E000849
:105490009554000810B590B0FEF758FC0D2200237B
:1054A0000E9318461946FEF7BDFC0E9B10200C907B
:1054B0000E221946FEF7B6FC0E9B20200F2219463D
:1054C000FEF7B0FC0C9A0E9B30201946FEF7AAFCA2
:1054D0000E9B402002220D921946FEF7A3FC0E9B64
:1054E000502003221946FEF79DFC0E9B60200622E9
:1054F0001946FEF797FC0E9B702007221946FEF70F
:1055000091FC0D990E9B18202722FEF78BFC0D991C
:105510000E9B28221046FEF785FC0D990E9B382025
:105520002922FEF77FFC0C980D9B0E99AD4A12784C
:105530000191009048201946FEF7BCFD0D990E9B85
:1055400058202A22FEF76EFC052000070122D10216
:10555000FBF76BFCFFE7A4480078012800D0EEE0E1
:10556000A14800220B920270052000074021FBF7A2
:105570005CFC0B99A24802685162FCF7A9FF9948AC
:10558000007800283DD1FFE7FEF7E0FB1020252240
:10559000002309931946FEF745FC099B202026228B
:1055A0001946FEF73FFC099B302002221946FEF700
:1055B00039FC099B402003221946FEF733FC099B66
:1055C000502019221946FEF72DFC099B60201A2253
:1055D0001946FEF727FC099A8A49EF200870AA208D
:1055E000487021208870CA700A71487186480A90F4
:1055F0000622FDF7E1FE0A9884498022FDF712FA9F
:105600003DE0FEF7A3FB2020049002220592002338
:1056100006931946FEF706FC069B30200322194626
:10562000FEF700FC069B402019221946FEF7FAFB04
:10563000069B50201A221946FEF7F4FB0498059B9E
:105640000699704A0792EF241470AA24547090703F
:10565000901CD170137151716249097891710521C3
:10566000FFF78AFE0799C871674808900822FDF77E
:10567000A3FE089865498022FDF7D4F9FFE7FFE70C
:1056800062488078002812D1FFE7604840792028DE
:105690000DD1FFE75D488079002808D1FFE705209C
:1056A00000070121C9020022FBF7BFFBFFE75748B3
:1056B0008078002812D1FFE75448407921280DD185
:1056C000FFE752488079002808D1FFE7052000074E
:1056D0000121C9020022FBF7A8FBFFE7434800783D
:1056E000012804D1FFE7414900200870FFE7404846
:1056F0000078012804D1FFE73D4900200870FFE74A
:1057000039480078012804D1FFE7374900200870A4
:10571000FFE738480078012810D1FFE7354800221C
:1057200003920270052000070121C902FBF77DFBEF
:105730000398314A314911600F9050E0A0E72B489F
:105740000078012818D1FFE7284900200870254873
:10575000007862280FDCFFE722480178491C0170BD
:105760000278002001901020009048200223194662
:10577000FEF7A0FCFFE7FFE71D480078012818D1DD
:10578000FFE71B49002008701648007801280FDB4E
:10579000FFE714480178491E01700278002001904B
:1057A00010200090482002231946FEF783FCFFE7F3
:1057B000FFE710480078012810D1FFE70D480022CC
:1057C00002920270052000070121C902FBF72DFBA0
:1057D0000298094A094911600F9000E0BBE60F9852
:1057E00010B010BD17000020900000209300002092
:1057F000920000209100002020000020B95D0008E8
:105800007802002014010020B8020020940000203B
:1058100010B5ACB0FEF79AFA0D220024179420467A
:1058200021462346FEF7FEFA10201B900E22214649
:105830002346FEF7F7FA202018900F222146234630
:10584000FEF7F0FA1B9A3020199021462346FEF706
:10585000E9FA40201A90214622462346FEF7E2FA52
:1058600050201C9001221E9221462346FEF7DAFAB0
:105870006020062221462346FEF7D4FA7020072234
:1058800021462346FEF7CEFA189802211D911122D7
:105890002346FEF7C7FA19981D9912222346FEF7F0
:1058A000C1FA1A981D9913222346FEF7BBFA1B99D9
:1058B0001C981D9BFC4A1278019400911946FEF732
:1058C000F9FB1E9A05200007D102FBF7AEFAFFE7AD
:1058D000F6480078012800D006E2F449002016902E
:1058E0000870FEF733FA169B2820149019461A46C2
:1058F000FEF798FA169B3820119001221946FEF700
:1059000091FA169B48201290182210921946FEF721
:1059100089FA1098169B022113910822FEF782FA49
:1059200013991498169B1422FEF77CFA1198139978
:10593000169B1522FEF776FA12981399169B1622DB
:10594000FEF770FA1399169B58201722FEF76AFA91
:1059500020A815902921FAF7D3FC149B159A1698C4
:10596000EF211170AA2151701D2191702321117115
:105970003E21D1541F90FFE71F9828280ADCFFE73B
:105980001F9A20A8805CCA498854FFE71F98401CD2
:105990001F90F1E7C4480178C5480E908171801CC2
:1059A0002621FFF7E9FC0E9928228854F8480F9029
:1059B0002922FDF701FD0F98FD498022FDF732F8FD
:1059C000FFE7FB488078002870D1FFE7F84840796E
:1059D0001D286BD1FFE7F64880790A2866D1FFE7DA
:1059E000052000070C90022100220D92FBF71DFA02
:1059F0000D99F04802685162FCF76AFD0D9A0C9807
:105A00000121C902FBF711FAFEF7A0F90D9B18203E
:105A100006221946FEF706FA0D9B28200722194692
:105A2000FEF700FA0D9B38201D221946FEF7FAF901
:105A30000D9B48201E221946FEF7F4F90D9B5820B5
:105A40001F221946FEF7EEF9FFE7D3480078012838
:105A500004D1FFE7D04900200870FFE7CF48007865
:105A6000012804D1FFE7CD4900200870FFE7CC48AA
:105A70000078012804D1FFE7C94900200870FFE73A
:105A8000C8480078012810D1FFE7C64800220B92D1
:105A90000270052000070121C902FBF7C6F90B9827
:105AA000C14AC24911602B906EE1CEE7C0488078B0
:105AB000002870D1FFE7BE4840791D286BD1FFE771
:105AC000BB488079002866D1FFE7B948007A0028F2
:105AD00061D0FFE70520000709900121089100220D
